:100000000C947A000C9484000C9484000C9484006A
:100010000C9484000C9484000C9484000C94840050
:100020000C9484000C9484000C9484000C94840040
:100030000C9484000C9484000C9484000C94840030
:100040000C9484000C9484000C9484000C94840020
:100050000C9484000C9484000C9484000C94840010
:100060000C9484000C9484000C9484000C94840000
:100070000C9484000C9484000C9484000C948400F0
:100080000C9484000C9484000C9484000C948400E0
:100090000C9484000C9484000C9484000C948400D0
:1000A0000C9484000C9484000C9484000C948400C0
:1000B0000C9484000C9484000C9484000C948400B0
:1000C0000C9484000C9484000C9484000C948400A0
:1000D0000C9484000C9484000C9484000C94840090
:1000E0000C9484000C9484000C9484000C94840080
:1000F0000C94840011241FBECFEFCDBFDFE7DEBF1D
:100100000E9463010C948A010C940000E0E1FBE082
:10011000108287E0818384E690E0848795878181DF
:10012000806181838AE090E084879587E0E6F4E04F
:1001300080E885832FE738E391E0215030409040FC
:10014000E1F700C0000086832FE738E391E02150FB
:1001500030409040E1F700C0000085832FE738E38E
:1001600091E0215030409040E1F700C000008683CC
:100170002FEF38E08DE3215030408040E1F700C0A0
:1001800000000895E0E6F4E082E08583AFE0B7E2A6
:100190001197F1F700C00000868308950E94C20005
:1001A0008091680480FFFCCF20911A0B30911B0BCB
:1001B0008091680480FDFCCF80911A0B90911B0BFD
:1001C000821B930B08959C018456910984369105F6
:1001D000F0F482E390E080931C0B90931D0B2FE7CB
:1001E0003AE186E0215030408040E1F700C0000055
:1001F00080E8809365049FE7EAE1F6E09150E040F3
:10020000F040E1F700C00000809366040895C90142
:100210008B5491094997D0F489E190E080931C0BAD
:1002200090931D0B2FE739EA83E021503040804046
:10023000E1F700C0000080E8809365049FE7E9EAE9
:10024000F3E09150E040F040E1F7DCCFC90149977D
:100250004997D0F48AE090E080931C0B90931D0B9B
:100260002FE738E381E0215030408040E1F700C0C3
:10027000000080E8809365049FE7E8E3F1E0915097
:10028000E040F040E1F7BECF21503109283131057F
:10029000A0F48AE590E080931C0B90931D0B8FE4F3
:1002A00093EC0197F1F700C0000080E880936504AB
:1002B000EFE4F3EC3197F1F7A5CF10921C0B1092FD
:1002C0001D0B80E8A1CF82E88093610481E08093D8
:1002D00062040E948600CAE3D0E00E94CE00BE0104
:1002E0000E947601CB010E94E300F7CFAA1BBB1B43
:1002F00051E107C0AA1FBB1FA617B70710F0A61B26
:10030000B70B881F991F5A95A9F780959095BC0146
:08031000CD010895F894FFCF20
:00000001FF
