:100000000C947A000C9484000C9484000C9484006A
:100010000C9484000C9484000C9484000C94840050
:100020000C9484000C9484000C9484000C94840040
:100030000C9484000C9484000C9484000C94840030
:100040000C9484000C9484000C9484000C94840020
:100050000C9484000C9484000C9484000C94840010
:100060000C9484000C9484000C9484000C94840000
:100070000C9484000C9484000C9484000C948400F0
:100080000C9484000C9484000C9484000C948400E0
:100090000C9484000C9484000C9484000C948400D0
:1000A0000C9484000C9484000C9484000C948400C0
:1000B0000C9484000C9484000C9484000C948400B0
:1000C0000C9484000C9484000C9484000C948400A0
:1000D0000C9484000C9484000C9484000C94840090
:1000E0000C9484000C9484000C9484000C94840080
:1000F0000C94840011241FBECFEFCDBFDFE7DEBF1D
:100100000E9486000C9412010C94000082E08093FF
:10011000610481E08093620480E88093610432E0AE
:10012000CAE3D0E020E8309365044DE04A95F1F74A
:100130000000309366048091680480FFFCCF8091BA
:100140001A0B90911B0B4091680440FDFCCFE0918D
:100150001A0BF0911B0BE81BF90BCF01BE010E949B
:10016000FE00CB018456910984369105D8F4209382
:1001700065048FE79AE146E0815090404040E1F706
:1001800000C0000020936604EA3AF54060F6209330
:1001900065048FE097E20197F1F700C0000020931B
:1001A0006604C1CFCB018B549109499750F4209339
:1001B00065048FE799EA43E0815090404040E1F7C1
:1001C000DFCFCB01C297499750F4209365048FEF9E
:1001D00090E742E0815090404040E1F7D1CF695133
:1001E00071096931710580F6209365048FE798E302
:1001F00041E0815090404040E1F7C2CFAA1BBB1BB9
:1002000051E107C0AA1FBB1FA617B70710F0A61B16
:10021000B70B881F991F5A95A9F780959095BC0137
:08022000CD010895F894FFCF11
:00000001FF
