:100000000C947A000C9484000C9484000C9484006A
:100010000C9484000C9484000C9484000C94840050
:100020000C9484000C9484000C9484000C94840040
:100030000C9484000C9484000C9484000C94840030
:100040000C9484000C9484000C9484000C94840020
:100050000C9484000C9484000C9484000C94840010
:100060000C9484000C9484000C9484000C94840000
:100070000C9484000C9484000C9484000C948400F0
:100080000C9484000C9484000C9484000C948400E0
:100090000C9484000C9484000C9484000C948400D0
:1000A0000C9484000C9484000C9484000C948400C0
:1000B0000C9484000C9484000C9484000C948400B0
:1000C0000C9484000C9484000C9484000C948400A0
:1000D0000C9484000C9484000C9484000C94840090
:1000E0000C9484000C9484000C9484000C94840080
:1000F0000C94840011241FBECFEFCDBFDFE7DEBF1D
:100100000E9478010C949F010C940000E0E1FBE058
:10011000108287E0818384E690E0848795878181DF
:1001200080618183A0E6B4E080E811968C931197FA
:100130002AE030E02487358715968C9315972FE7B2
:1001400038E391E0215030409040E1F700C00000DA
:1001500016968C9316972FE738E391E021503040A4
:100160009040E1F700C0000015968C9315972FE79B
:1001700038E391E0215030409040E1F700C00000AA
:1001800016968C932FEF39E688E12150304080405D
:10019000E1F700C000000895E0E6F4E082E0858326
:1001A0009AE19A95F1F700C0868308950E94CC00E9
:1001B0008091680480FFFCCF20911A0B30911B0BBB
:1001C0008091680480FDFCCF40911A0B50911B0B6D
:1001D00090E8909365046FE778E381E061507040A8
:1001E0008040E1F700C0000090936604CA01821BC2
:1001F000930B08959C018456910984369105F0F47F
:1002000082E390E080931C0B90931D0B2FE73AE163
:1002100086E0215030408040E1F700C0000080E8D7
:10022000809365049FE7EAE1F6E09150E040F040FA
:10023000E1F700C00000809366040895C9018B5463
:1002400091094997D0F489E190E080931C0B909339
:100250001D0B2FE739EA83E0215030408040E1F761
:1002600000C0000080E8809365049FE7E9EAF3E0BE
:100270009150E040F040E1F7DCCFC9014997499740
:10028000D0F48AE090E080931C0B90931D0B2FE735
:1002900038E381E0215030408040E1F700C00000A9
:1002A00080E8809365049FE7E8E3F1E09150E04047
:1002B000F040E1F7BECF29313105A0F48AE590E0A6
:1002C00080931C0B90931D0B8FE493EC0197F1F737
:1002D00000C0000080E880936504EFE4F3EC319700
:1002E000F1F7A7CF10921C0B10921D0B80E8A3CF43
:1002F00082E88093610481E0809362040E9486001A
:10030000CAE3D0E00E94D600BE010E948B01CB015F
:100310000E94FA00F7CFAA1BBB1B51E107C0AA1F1E
:10032000BB1FA617B70710F0A61BB70B881F991F96
:100330005A95A9F780959095BC01CD010895F89440
:02034000FFCFED
:00000001FF
