:100000000C947A000C9484000C9484000C9484006A
:100010000C9484000C9484000C9484000C94840050
:100020000C9484000C9484000C9484000C94840040
:100030000C9484000C9484000C9484000C94840030
:100040000C9484000C9484000C9484000C94840020
:100050000C9484000C9484000C9484000C94840010
:100060000C9484000C9484000C9484000C94840000
:100070000C9484000C9484000C9484000C948400F0
:100080000C9484000C9484000C9484000C948400E0
:100090000C9484000C9484000C9484000C948400D0
:1000A0000C9484000C9484000C9484000C948400C0
:1000B0000C9484000C9484000C9484000C948400B0
:1000C0000C9484000C9484000C9484000C948400A0
:1000D0000C9484000C9484000C9484000C94840090
:1000E0000C9484000C9484000C9484000C94840080
:1000F0000C94840011241FBECFEFCDBFDFE7DEBF1D
:100100000E9437010C945E010C940000E0E1FBE0DA
:10011000108287E08183158684E6848780E181836D
:1001200008951F93CF93DF93C0E6D4E012E01D83C0
:100130008AE090E00E9419011E83DF91CF911F9108
:1001400008950E9491008091680480FFFCCF209167
:100150001A0B30911B0B8091680480FDFCCF8091BD
:100160001A0B90911B0B821B930B0895CF939C014C
:100170008456910984369105A0F410921D0B8AE0F3
:1001800080931C0B84EF91E00E941901C0E8C0939A
:10019000650484EF91E00E941901C0936604CF9139
:1001A0000895C9018B549109499778F410921D0B59
:1001B00089E180931C0B8CE291E00E941901C0E858
:1001C000C09365048CE291E0E6CFC9014997499755
:1001D00078F410921D0B82E380931C0B84E690E070
:1001E0000E941901C0E8C093650484E690E0D3CF73
:1001F0002150310910921D0B2831310568F48BE430
:1002000080931C0B82E390E00E941901C0E8C09328
:10021000650482E390E0BFCF84E680931C0B89E104
:1002200090E00E941901C0E8C093650489E190E064
:10023000B2CF10920A0B10920B0B21E02093060B09
:1002400048E351E0849F9001859F300D949F300DCD
:10025000112420930C0B30930D0B83E08093000B43
:100260008091060B80FFFCCF1092000B089582E86E
:100270008093610481E0809362040E948600CAE357
:10028000D0E00E94A100BE010E944A01CB010E9461
:10029000B600F7CFAA1BBB1B51E107C0AA1FBB1FAB
:1002A000A617B70710F0A61BB70B881F991F5A9502
:1002B000A9F780959095BC01CD010895F894FFCFE2
:00000001FF
